{
  "_format": "hh-sol-artifact-1",
  "contractName": "AgentPermissionRegistry",
  "sourceName": "contracts/AgentPermissionRegistry.sol",
  "abi": [
    {
      "inputs": [],
      "stateMutability": "nonpayable",
      "type": "constructor"
    },
    {
      "anonymous": false,
      "inputs": [
        {
          "indexed": true,
          "internalType": "bytes32",
          "name": "agentId",
          "type": "bytes32"
        },
        {
          "indexed": true,
          "internalType": "bytes32",
          "name": "actionType",
          "type": "bytes32"
        },
        {
          "indexed": false,
          "internalType": "bool",
          "name": "permitted",
          "type": "bool"
        },
        {
          "indexed": false,
          "internalType": "bytes32",
          "name": "requestHash",
          "type": "bytes32"
        },
        {
          "indexed": false,
          "internalType": "uint256",
          "name": "timestamp",
          "type": "uint256"
        },
        {
          "indexed": false,
          "internalType": "address",
          "name": "caller",
          "type": "address"
        }
      ],
      "name": "DecisionLogged",
      "type": "event"
    },
    {
      "anonymous": false,
      "inputs": [
        {
          "indexed": true,
          "internalType": "address",
          "name": "previousOwner",
          "type": "address"
        },
        {
          "indexed": true,
          "internalType": "address",
          "name": "newOwner",
          "type": "address"
        }
      ],
      "name": "OwnershipTransferred",
      "type": "event"
    },
    {
      "anonymous": false,
      "inputs": [
        {
          "indexed": true,
          "internalType": "bytes32",
          "name": "agentId",
          "type": "bytes32"
        },
        {
          "indexed": true,
          "internalType": "bytes32",
          "name": "actionType",
          "type": "bytes32"
        },
        {
          "indexed": false,
          "internalType": "bool",
          "name": "permitted",
          "type": "bool"
        },
        {
          "indexed": false,
          "internalType": "uint256",
          "name": "timestamp",
          "type": "uint256"
        }
      ],
      "name": "PermissionSet",
      "type": "event"
    },
    {
      "inputs": [
        {
          "internalType": "bytes32[]",
          "name": "agentIds",
          "type": "bytes32[]"
        },
        {
          "internalType": "bytes32[]",
          "name": "actionTypes",
          "type": "bytes32[]"
        },
        {
          "internalType": "bool[]",
          "name": "permittedFlags",
          "type": "bool[]"
        }
      ],
      "name": "batchSetPermissions",
      "outputs": [],
      "stateMutability": "nonpayable",
      "type": "function"
    },
    {
      "inputs": [
        {
          "internalType": "bytes32",
          "name": "agentId",
          "type": "bytes32"
        },
        {
          "internalType": "bytes32",
          "name": "actionType",
          "type": "bytes32"
        }
      ],
      "name": "checkPermission",
      "outputs": [
        {
          "internalType": "bool",
          "name": "",
          "type": "bool"
        }
      ],
      "stateMutability": "view",
      "type": "function"
    },
    {
      "inputs": [],
      "name": "getStats",
      "outputs": [
        {
          "internalType": "uint256",
          "name": "decisions",
          "type": "uint256"
        },
        {
          "internalType": "uint256",
          "name": "denials",
          "type": "uint256"
        }
      ],
      "stateMutability": "view",
      "type": "function"
    },
    {
      "inputs": [
        {
          "internalType": "bytes32",
          "name": "agentId",
          "type": "bytes32"
        },
        {
          "internalType": "bytes32",
          "name": "actionType",
          "type": "bytes32"
        },
        {
          "internalType": "bool",
          "name": "permitted",
          "type": "bool"
        },
        {
          "internalType": "bytes32",
          "name": "requestHash",
          "type": "bytes32"
        }
      ],
      "name": "logDecision",
      "outputs": [],
      "stateMutability": "nonpayable",
      "type": "function"
    },
    {
      "inputs": [],
      "name": "owner",
      "outputs": [
        {
          "internalType": "address",
          "name": "",
          "type": "address"
        }
      ],
      "stateMutability": "view",
      "type": "function"
    },
    {
      "inputs": [
        {
          "internalType": "bytes32",
          "name": "agentId",
          "type": "bytes32"
        },
        {
          "internalType": "bytes32",
          "name": "actionType",
          "type": "bytes32"
        },
        {
          "internalType": "bool",
          "name": "permitted",
          "type": "bool"
        }
      ],
      "name": "setPermission",
      "outputs": [],
      "stateMutability": "nonpayable",
      "type": "function"
    },
    {
      "inputs": [],
      "name": "totalDecisions",
      "outputs": [
        {
          "internalType": "uint256",
          "name": "",
          "type": "uint256"
        }
      ],
      "stateMutability": "view",
      "type": "function"
    },
    {
      "inputs": [],
      "name": "totalDenials",
      "outputs": [
        {
          "internalType": "uint256",
          "name": "",
          "type": "uint256"
        }
      ],
      "stateMutability": "view",
      "type": "function"
    },
    {
      "inputs": [
        {
          "internalType": "address",
          "name": "newOwner",
          "type": "address"
        }
      ],
      "name": "transferOwnership",
      "outputs": [],
      "stateMutability": "nonpayable",
      "type": "function"
    }
  ],
  "bytecode": "0x608060405234801561001057600080fd5b50600080546001600160a01b0319163390811782556040519091907f8be0079c531659141344cd1fd0a4f28419497f9722a3daafe3b4186f6b6457e0908290a36107d18061005f6000396000f3fe608060405234801561001057600080fd5b50600436106100935760003560e01c806380d708cf1161006657806380d708cf1461011a5780638da5cb5b14610123578063c59d48471461014e578063f2fde38b14610169578063f97b62891461017c57600080fd5b80630c96a61a146100985780631a157297146100b45780631d3a8ea0146100c95780634fb95bc6146100dc575b600080fd5b6100a160025481565b6040519081526020015b60405180910390f35b6100c76100c2366004610552565b61018f565b005b6100c76100d73660046105db565b610210565b61010a6100ea366004610675565b600091825260016020908152604080842092845291905290205460ff1690565b60405190151581526020016100ab565b6100a160035481565b600054610136906001600160a01b031681565b6040516001600160a01b0390911681526020016100ab565b600254600354604080519283526020830191909152016100ab565b6100c7610177366004610697565b6103df565b6100c761018a3660046106c7565b6104a9565b6002805490600061019f836106fc565b9190505550816101bf57600380549060006101b9836106fc565b91905055505b6040805183151581526020810183905242818301523360608201529051849186917f61f527b35f2d1644f6e83a9316fe0150addf871fc3d21b8c2526f01208f2348e9181900360800190a350505050565b6000546001600160a01b031633146102435760405162461bcd60e51b815260040161023a90610723565b60405180910390fd5b848314801561025157508281145b6102955760405162461bcd60e51b8152602060048201526015602482015274082e4e4c2f240d8cadccee8d040dad2e6dac2e8c6d605b1b604482015260640161023a565b60005b858110156103d6578282828181106102b2576102b261076a565b90506020020160208101906102c79190610780565b600160008989858181106102dd576102dd61076a565b90506020020135815260200190815260200160002060008787858181106103065761030661076a565b90506020020135815260200190815260200160002060006101000a81548160ff0219169083151502179055508484828181106103445761034461076a565b9050602002013587878381811061035d5761035d61076a565b905060200201357f080f0de66ad7572c804c0320eb8a2006a18ed1437f1626d6231f9448585dac7f8585858181106103975761039761076a565b90506020020160208101906103ac9190610780565b6040805191151582524260208301520160405180910390a3806103ce816106fc565b915050610298565b50505050505050565b6000546001600160a01b031633146104095760405162461bcd60e51b815260040161023a90610723565b6001600160a01b03811661044e5760405162461bcd60e51b815260206004820152600c60248201526b5a65726f206164647265737360a01b604482015260640161023a565b600080546040516001600160a01b03808516939216917f8be0079c531659141344cd1fd0a4f28419497f9722a3daafe3b4186f6b6457e091a3600080546001600160a01b0319166001600160a01b0392909216919091179055565b6000546001600160a01b031633146104d35760405162461bcd60e51b815260040161023a90610723565b6000838152600160209081526040808320858452825291829020805460ff191684151590811790915582519081524291810191909152839185917f080f0de66ad7572c804c0320eb8a2006a18ed1437f1626d6231f9448585dac7f910160405180910390a3505050565b8035801515811461054d57600080fd5b919050565b6000806000806080858703121561056857600080fd5b843593506020850135925061057f6040860161053d565b9396929550929360600135925050565b60008083601f8401126105a157600080fd5b50813567ffffffffffffffff8111156105b957600080fd5b6020830191508360208260051b85010111156105d457600080fd5b9250929050565b600080600080600080606087890312156105f457600080fd5b863567ffffffffffffffff8082111561060c57600080fd5b6106188a838b0161058f565b9098509650602089013591508082111561063157600080fd5b61063d8a838b0161058f565b9096509450604089013591508082111561065657600080fd5b5061066389828a0161058f565b979a9699509497509295939492505050565b6000806040838503121561068857600080fd5b50508035926020909101359150565b6000602082840312156106a957600080fd5b81356001600160a01b03811681146106c057600080fd5b9392505050565b6000806000606084860312156106dc57600080fd5b83359250602084013591506106f36040850161053d565b90509250925092565b60006001820161071c57634e487b7160e01b600052601160045260246000fd5b5060010190565b60208082526027908201527f4167656e745065726d697373696f6e52656769737472793a204e6f74206175746040820152661a1bdc9a5e995960ca1b606082015260800190565b634e487b7160e01b600052603260045260246000fd5b60006020828403121561079257600080fd5b6106c08261053d56fea2646970667358221220a1c8307aa34abfe45861113aff6801ae5d92226c7bb817aabed3b50157d68a5064736f6c63430008130033",
  "linkReferences": {},
  "deployedLinkReferences": {}
}